{
  "_format": "hh-sol-artifact-1",
  "contractName": "MyToken",
  "sourceName": "contracts/MyToken.sol",
  "abi": [
    {
      "inputs": [],
      "stateMutability": "nonpayable",
      "type": "constructor"
    },
    {
      "anonymous": false,
      "inputs": [
        {
          "indexed": true,
          "internalType": "address",
          "name": "owner",
          "type": "address"
        },
        {
          "indexed": true,
          "internalType": "address",
          "name": "approved",
          "type": "address"
        },
        {
          "indexed": true,
          "internalType": "uint256",
          "name": "tokenId",
          "type": "uint256"
        }
      ],
      "name": "Approval",
      "type": "event"
    },
    {
      "anonymous": false,
      "inputs": [
        {
          "indexed": true,
          "internalType": "address",
          "name": "owner",
          "type": "address"
        },
        {
          "indexed": true,
          "internalType": "address",
          "name": "operator",
          "type": "address"
        },
        {
          "indexed": false,
          "internalType": "bool",
          "name": "approved",
          "type": "bool"
        }
      ],
      "name": "ApprovalForAll",
      "type": "event"
    },
    {
      "anonymous": false,
      "inputs": [
        {
          "indexed": true,
          "internalType": "address",
          "name": "previousOwner",
          "type": "address"
        },
        {
          "indexed": true,
          "internalType": "address",
          "name": "newOwner",
          "type": "address"
        }
      ],
      "name": "OwnershipTransferred",
      "type": "event"
    },
    {
      "anonymous": false,
      "inputs": [
        {
          "indexed": true,
          "internalType": "address",
          "name": "from",
          "type": "address"
        },
        {
          "indexed": true,
          "internalType": "address",
          "name": "to",
          "type": "address"
        },
        {
          "indexed": true,
          "internalType": "uint256",
          "name": "tokenId",
          "type": "uint256"
        }
      ],
      "name": "Transfer",
      "type": "event"
    },
    {
      "inputs": [
        {
          "internalType": "address",
          "name": "to",
          "type": "address"
        },
        {
          "internalType": "uint256",
          "name": "tokenId",
          "type": "uint256"
        }
      ],
      "name": "approve",
      "outputs": [],
      "stateMutability": "nonpayable",
      "type": "function"
    },
    {
      "inputs": [
        {
          "internalType": "address",
          "name": "user",
          "type": "address"
        },
        {
          "internalType": "string",
          "name": "tokenURI",
          "type": "string"
        }
      ],
      "name": "awardCollectible",
      "outputs": [
        {
          "internalType": "uint256",
          "name": "",
          "type": "uint256"
        }
      ],
      "stateMutability": "nonpayable",
      "type": "function"
    },
    {
      "inputs": [
        {
          "internalType": "address",
          "name": "owner",
          "type": "address"
        }
      ],
      "name": "balanceOf",
      "outputs": [
        {
          "internalType": "uint256",
          "name": "",
          "type": "uint256"
        }
      ],
      "stateMutability": "view",
      "type": "function"
    },
    {
      "inputs": [
        {
          "internalType": "uint256",
          "name": "tokenId",
          "type": "uint256"
        }
      ],
      "name": "getApproved",
      "outputs": [
        {
          "internalType": "address",
          "name": "",
          "type": "address"
        }
      ],
      "stateMutability": "view",
      "type": "function"
    },
    {
      "inputs": [
        {
          "internalType": "address",
          "name": "owner",
          "type": "address"
        },
        {
          "internalType": "address",
          "name": "operator",
          "type": "address"
        }
      ],
      "name": "isApprovedForAll",
      "outputs": [
        {
          "internalType": "bool",
          "name": "",
          "type": "bool"
        }
      ],
      "stateMutability": "view",
      "type": "function"
    },
    {
      "inputs": [],
      "name": "name",
      "outputs": [
        {
          "internalType": "string",
          "name": "",
          "type": "string"
        }
      ],
      "stateMutability": "view",
      "type": "function"
    },
    {
      "inputs": [],
      "name": "owner",
      "outputs": [
        {
          "internalType": "address",
          "name": "",
          "type": "address"
        }
      ],
      "stateMutability": "view",
      "type": "function"
    },
    {
      "inputs": [
        {
          "internalType": "uint256",
          "name": "tokenId",
          "type": "uint256"
        }
      ],
      "name": "ownerOf",
      "outputs": [
        {
          "internalType": "address",
          "name": "",
          "type": "address"
        }
      ],
      "stateMutability": "view",
      "type": "function"
    },
    {
      "inputs": [],
      "name": "renounceOwnership",
      "outputs": [],
      "stateMutability": "nonpayable",
      "type": "function"
    },
    {
      "inputs": [
        {
          "internalType": "address",
          "name": "from",
          "type": "address"
        },
        {
          "internalType": "address",
          "name": "to",
          "type": "address"
        },
        {
          "internalType": "uint256",
          "name": "tokenId",
          "type": "uint256"
        }
      ],
      "name": "safeTransferFrom",
      "outputs": [],
      "stateMutability": "nonpayable",
      "type": "function"
    },
    {
      "inputs": [
        {
          "internalType": "address",
          "name": "from",
          "type": "address"
        },
        {
          "internalType": "address",
          "name": "to",
          "type": "address"
        },
        {
          "internalType": "uint256",
          "name": "tokenId",
          "type": "uint256"
        },
        {
          "internalType": "bytes",
          "name": "_data",
          "type": "bytes"
        }
      ],
      "name": "safeTransferFrom",
      "outputs": [],
      "stateMutability": "nonpayable",
      "type": "function"
    },
    {
      "inputs": [
        {
          "internalType": "address",
          "name": "operator",
          "type": "address"
        },
        {
          "internalType": "bool",
          "name": "approved",
          "type": "bool"
        }
      ],
      "name": "setApprovalForAll",
      "outputs": [],
      "stateMutability": "nonpayable",
      "type": "function"
    },
    {
      "inputs": [
        {
          "internalType": "bytes4",
          "name": "interfaceId",
          "type": "bytes4"
        }
      ],
      "name": "supportsInterface",
      "outputs": [
        {
          "internalType": "bool",
          "name": "",
          "type": "bool"
        }
      ],
      "stateMutability": "view",
      "type": "function"
    },
    {
      "inputs": [],
      "name": "symbol",
      "outputs": [
        {
          "internalType": "string",
          "name": "",
          "type": "string"
        }
      ],
      "stateMutability": "view",
      "type": "function"
    },
    {
      "inputs": [
        {
          "internalType": "uint256",
          "name": "tokenId",
          "type": "uint256"
        }
      ],
      "name": "tokenURI",
      "outputs": [
        {
          "internalType": "string",
          "name": "",
          "type": "string"
        }
      ],
      "stateMutability": "view",
      "type": "function"
    },
    {
      "inputs": [
        {
          "internalType": "address",
          "name": "from",
          "type": "address"
        },
        {
          "internalType": "address",
          "name": "to",
          "type": "address"
        },
        {
          "internalType": "uint256",
          "name": "tokenId",
          "type": "uint256"
        }
      ],
      "name": "transferFrom",
      "outputs": [],
      "stateMutability": "nonpayable",
      "type": "function"
    },
    {
      "inputs": [
        {
          "internalType": "address",
          "name": "newOwner",
          "type": "address"
        }
      ],
      "name": "transferOwnership",
      "outputs": [],
      "stateMutability": "nonpayable",
      "type": "function"
    }
  ],
  "bytecode": "0x60806040523480156200001157600080fd5b506040518060400160405280600781526020017f4d79546f6b656e000000000000000000000000000000000000000000000000008152506040518060400160405280600281526020017f4d540000000000000000000000000000000000000000000000000000000000008152506200009e62000092620000d860201b60201c565b620000e060201b60201c565b8160019080519060200190620000b6929190620001a4565b508060029080519060200190620000cf929190620001a4565b505050620002b9565b600033905090565b60008060009054906101000a900473ffffffffffffffffffffffffffffffffffffffff169050816000806101000a81548173ffffffffffffffffffffffffffffffffffffffff021916908373ffffffffffffffffffffffffffffffffffffffff1602179055508173ffffffffffffffffffffffffffffffffffffffff168173ffffffffffffffffffffffffffffffffffffffff167f8be0079c531659141344cd1fd0a4f28419497f9722a3daafe3b4186f6b6457e060405160405180910390a35050565b828054620001b29062000254565b90600052602060002090601f016020900481019282620001d6576000855562000222565b82601f10620001f157805160ff191683800117855562000222565b8280016001018555821562000222579182015b828111156200022157825182559160200191906001019062000204565b5b50905062000231919062000235565b5090565b5b808211156200025057600081600090555060010162000236565b5090565b600060028204905060018216806200026d57607f821691505b602082108114156200028457620002836200028a565b5b50919050565b7f4e487b7100000000000000000000000000000000000000000000000000000000600052602260045260246000fd5b612eb680620002c96000396000f3fe608060405234801561001057600080fd5b506004361061010b5760003560e01c8063715018a6116100a2578063a22cb46511610071578063a22cb465146102b8578063b88d4fde146102d4578063c87b56dd146102f0578063e985e9c514610320578063f2fde38b146103505761010b565b8063715018a61461024257806389d633081461024c5780638da5cb5b1461027c57806395d89b411461029a5761010b565b806323b872dd116100de57806323b872dd146101aa57806342842e0e146101c65780636352211e146101e257806370a08231146102125761010b565b806301ffc9a71461011057806306fdde0314610140578063081812fc1461015e578063095ea7b31461018e575b600080fd5b61012a60048036038101906101259190611f64565b61036c565b60405161013791906127ce565b60405180910390f35b61014861044e565b60405161015591906127e9565b60405180910390f35b61017860048036038101906101739190611fb6565b6104e0565b6040516101859190612767565b60405180910390f35b6101a860048036038101906101a39190611f28565b610565565b005b6101c460048036038101906101bf9190611dce565b61067d565b005b6101e060048036038101906101db9190611dce565b6106dd565b005b6101fc60048036038101906101f79190611fb6565b6106fd565b6040516102099190612767565b60405180910390f35b61022c60048036038101906102279190611d69565b6107af565b6040516102399190612a4b565b60405180910390f35b61024a610867565b005b61026660048036038101906102619190611ed4565b6108ef565b6040516102739190612a4b565b60405180910390f35b610284610927565b6040516102919190612767565b60405180910390f35b6102a2610950565b6040516102af91906127e9565b60405180910390f35b6102d260048036038101906102cd9190611e98565b6109e2565b005b6102ee60048036038101906102e99190611e1d565b610b63565b005b61030a60048036038101906103059190611fb6565b610bc5565b60405161031791906127e9565b60405180910390f35b61033a60048036038101906103359190611d92565b610d17565b60405161034791906127ce565b60405180910390f35b61036a60048036038101906103659190611d69565b610dab565b005b60007f80ac58cd000000000000000000000000000000000000000000000000000000007bffffffffffffffffffffffffffffffffffffffffffffffffffffffff1916827bffffffffffffffffffffffffffffffffffffffffffffffffffffffff1916148061043757507f5b5e139f000000000000000000000000000000000000000000000000000000007bffffffffffffffffffffffffffffffffffffffffffffffffffffffff1916827bffffffffffffffffffffffffffffffffffffffffffffffffffffffff1916145b80610447575061044682610ea3565b5b9050919050565b60606001805461045d90612cab565b80601f016020809104026020016040519081016040528092919081815260200182805461048990612cab565b80156104d65780601f106104ab576101008083540402835291602001916104d6565b820191906000526020600020905b8154815290600101906020018083116104b957829003601f168201915b5050505050905090565b60006104eb82610f0d565b61052a576040517f08c379a00000000000000000000000000000000000000000000000000000000081526004016105219061298b565b60405180910390fd5b6005600083815260200190815260200160002060009054906101000a900473ffffffffffffffffffffffffffffffffffffffff169050919050565b6000610570826106fd565b90508073ffffffffffffffffffffffffffffffffffffffff168373ffffffffffffffffffffffffffffffffffffffff1614156105e1576040517f08c379a00000000000000000000000000000000000000000000000000000000081526004016105d890612a0b565b60405180910390fd5b8073ffffffffffffffffffffffffffffffffffffffff16610600610f79565b73ffffffffffffffffffffffffffffffffffffffff16148061062f575061062e81610629610f79565b610d17565b5b61066e576040517f08c379a0000000000000000000000000000000000000000000000000000000008152600401610665906128cb565b60405180910390fd5b6106788383610f81565b505050565b61068e610688610f79565b8261103a565b6106cd576040517f08c379a00000000000000000000000000000000000000000000000000000000081526004016106c490612a2b565b60405180910390fd5b6106d8838383611118565b505050565b6106f883838360405180602001604052806000815250610b63565b505050565b6000806003600084815260200190815260200160002060009054906101000a900473ffffffffffffffffffffffffffffffffffffffff169050600073ffffffffffffffffffffffffffffffffffffffff168173ffffffffffffffffffffffffffffffffffffffff1614156107a6576040517f08c379a000000000000000000000000000000000000000000000000000000000815260040161079d9061290b565b60405180910390fd5b80915050919050565b60008073ffffffffffffffffffffffffffffffffffffffff168273ffffffffffffffffffffffffffffffffffffffff161415610820576040517f08c379a0000000000000000000000000000000000000000000000000000000008152600401610817906128eb565b60405180910390fd5b600460008373ffffffffffffffffffffffffffffffffffffffff1673ffffffffffffffffffffffffffffffffffffffff168152602001908152602001600020549050919050565b61086f610f79565b73ffffffffffffffffffffffffffffffffffffffff1661088d610927565b73ffffffffffffffffffffffffffffffffffffffff16146108e3576040517f08c379a00000000000000000000000000000000000000000000000000000000081526004016108da906129ab565b60405180910390fd5b6108ed6000611374565b565b60006108fb6008611438565b6000610907600861144e565b9050610913848261145c565b61091d818461147a565b8091505092915050565b60008060009054906101000a900473ffffffffffffffffffffffffffffffffffffffff16905090565b60606002805461095f90612cab565b80601f016020809104026020016040519081016040528092919081815260200182805461098b90612cab565b80156109d85780601f106109ad576101008083540402835291602001916109d8565b820191906000526020600020905b8154815290600101906020018083116109bb57829003601f168201915b5050505050905090565b6109ea610f79565b73ffffffffffffffffffffffffffffffffffffffff168273ffffffffffffffffffffffffffffffffffffffff161415610a58576040517f08c379a0000000000000000000000000000000000000000000000000000000008152600401610a4f9061288b565b60405180910390fd5b8060066000610a65610f79565b73ffffffffffffffffffffffffffffffffffffffff1673ffffffffffffffffffffffffffffffffffffffff16815260200190815260200160002060008473ffffffffffffffffffffffffffffffffffffffff1673ffffffffffffffffffffffffffffffffffffffff16815260200190815260200160002060006101000a81548160ff0219169083151502179055508173ffffffffffffffffffffffffffffffffffffffff16610b12610f79565b73ffffffffffffffffffffffffffffffffffffffff167f17307eab39ab6107e8899845ad3d59bd9653f200f220920489ca2b5937696c3183604051610b5791906127ce565b60405180910390a35050565b610b74610b6e610f79565b8361103a565b610bb3576040517f08c379a0000000000000000000000000000000000000000000000000000000008152600401610baa90612a2b565b60405180910390fd5b610bbf848484846114ee565b50505050565b6060610bd082610f0d565b610c0f576040517f08c379a0000000000000000000000000000000000000000000000000000000008152600401610c069061296b565b60405180910390fd5b6000600760008481526020019081526020016000208054610c2f90612cab565b80601f0160208091040260200160405190810160405280929190818152602001828054610c5b90612cab565b8015610ca85780601f10610c7d57610100808354040283529160200191610ca8565b820191906000526020600020905b815481529060010190602001808311610c8b57829003601f168201915b505050505090506000610cb961154a565b9050600081511415610ccf578192505050610d12565b600082511115610d04578082604051602001610cec929190612743565b60405160208183030381529060405292505050610d12565b610d0d84611561565b925050505b919050565b6000600660008473ffffffffffffffffffffffffffffffffffffffff1673ffffffffffffffffffffffffffffffffffffffff16815260200190815260200160002060008373ffffffffffffffffffffffffffffffffffffffff1673ffffffffffffffffffffffffffffffffffffffff16815260200190815260200160002060009054906101000a900460ff16905092915050565b610db3610f79565b73ffffffffffffffffffffffffffffffffffffffff16610dd1610927565b73ffffffffffffffffffffffffffffffffffffffff1614610e27576040517f08c379a0000000000000000000000000000000000000000000000000000000008152600401610e1e906129ab565b60405180910390fd5b600073ffffffffffffffffffffffffffffffffffffffff168173ffffffffffffffffffffffffffffffffffffffff161415610e97576040517f08c379a0000000000000000000000000000000000000000000000000000000008152600401610e8e9061282b565b60405180910390fd5b610ea081611374565b50565b60007f01ffc9a7000000000000000000000000000000000000000000000000000000007bffffffffffffffffffffffffffffffffffffffffffffffffffffffff1916827bffffffffffffffffffffffffffffffffffffffffffffffffffffffff1916149050919050565b60008073ffffffffffffffffffffffffffffffffffffffff166003600084815260200190815260200160002060009054906101000a900473ffffffffffffffffffffffffffffffffffffffff1673ffffffffffffffffffffffffffffffffffffffff1614159050919050565b600033905090565b816005600083815260200190815260200160002060006101000a81548173ffffffffffffffffffffffffffffffffffffffff021916908373ffffffffffffffffffffffffffffffffffffffff160217905550808273ffffffffffffffffffffffffffffffffffffffff16610ff4836106fd565b73ffffffffffffffffffffffffffffffffffffffff167f8c5be1e5ebec7d5bd14f71427d1e84f3dd0314c0f7b2291e5b200ac8c7c3b92560405160405180910390a45050565b600061104582610f0d565b611084576040517f08c379a000000000000000000000000000000000000000000000000000000000815260040161107b906128ab565b60405180910390fd5b600061108f836106fd565b90508073ffffffffffffffffffffffffffffffffffffffff168473ffffffffffffffffffffffffffffffffffffffff1614806110fe57508373ffffffffffffffffffffffffffffffffffffffff166110e6846104e0565b73ffffffffffffffffffffffffffffffffffffffff16145b8061110f575061110e8185610d17565b5b91505092915050565b8273ffffffffffffffffffffffffffffffffffffffff16611138826106fd565b73ffffffffffffffffffffffffffffffffffffffff161461118e576040517f08c379a0000000000000000000000000000000000000000000000000000000008152600401611185906129cb565b60405180910390fd5b600073ffffffffffffffffffffffffffffffffffffffff168273ffffffffffffffffffffffffffffffffffffffff1614156111fe576040517f08c379a00000000000000000000000000000000000000000000000000000000081526004016111f59061286b565b60405180910390fd5b611209838383611608565b611214600082610f81565b6001600460008573ffffffffffffffffffffffffffffffffffffffff1673ffffffffffffffffffffffffffffffffffffffff16815260200190815260200160002060008282546112649190612bc1565b925050819055506001600460008473ffffffffffffffffffffffffffffffffffffffff1673ffffffffffffffffffffffffffffffffffffffff16815260200190815260200160002060008282546112bb9190612b3a565b92505081905550816003600083815260200190815260200160002060006101000a81548173ffffffffffffffffffffffffffffffffffffffff021916908373ffffffffffffffffffffffffffffffffffffffff160217905550808273ffffffffffffffffffffffffffffffffffffffff168473ffffffffffffffffffffffffffffffffffffffff167fddf252ad1be2c89b69c2b068fc378daa952ba7f163c4a11628f55a4df523b3ef60405160405180910390a4505050565b60008060009054906101000a900473ffffffffffffffffffffffffffffffffffffffff169050816000806101000a81548173ffffffffffffffffffffffffffffffffffffffff021916908373ffffffffffffffffffffffffffffffffffffffff1602179055508173ffffffffffffffffffffffffffffffffffffffff168173ffffffffffffffffffffffffffffffffffffffff167f8be0079c531659141344cd1fd0a4f28419497f9722a3daafe3b4186f6b6457e060405160405180910390a35050565b6001816000016000828254019250508190555050565b600081600001549050919050565b61147682826040518060200160405280600081525061160d565b5050565b61148382610f0d565b6114c2576040517f08c379a00000000000000000000000000000000000000000000000000000000081526004016114b99061292b565b60405180910390fd5b806007600084815260200190815260200160002090805190602001906114e9929190611b8d565b505050565b6114f9848484611118565b61150584848484611668565b611544576040517f08c379a000000000000000000000000000000000000000000000000000000000815260040161153b9061280b565b60405180910390fd5b50505050565b606060405180602001604052806000815250905090565b606061156c82610f0d565b6115ab576040517f08c379a00000000000000000000000000000000000000000000000000000000081526004016115a2906129eb565b60405180910390fd5b60006115b561154a565b905060008151116115d55760405180602001604052806000815250611600565b806115df846117ff565b6040516020016115f0929190612743565b6040516020818303038152906040525b915050919050565b505050565b61161783836119ac565b6116246000848484611668565b611663576040517f08c379a000000000000000000000000000000000000000000000000000000000815260040161165a9061280b565b60405180910390fd5b505050565b60006116898473ffffffffffffffffffffffffffffffffffffffff16611b7a565b156117f2578373ffffffffffffffffffffffffffffffffffffffff1663150b7a026116b2610f79565b8786866040518563ffffffff1660e01b81526004016116d49493929190612782565b602060405180830381600087803b1580156116ee57600080fd5b505af192505050801561171f57506040513d601f19601f8201168201806040525081019061171c9190611f8d565b60015b6117a2573d806000811461174f576040519150601f19603f3d011682016040523d82523d6000602084013e611754565b606091505b5060008151141561179a576040517f08c379a00000000000000000000000000000000000000000000000000000000081526004016117919061280b565b60405180910390fd5b805181602001fd5b63150b7a0260e01b7bffffffffffffffffffffffffffffffffffffffffffffffffffffffff1916817bffffffffffffffffffffffffffffffffffffffffffffffffffffffff1916149150506117f7565b600190505b949350505050565b60606000821415611847576040518060400160405280600181526020017f300000000000000000000000000000000000000000000000000000000000000081525090506119a7565b600082905060005b6000821461187957808061186290612cdd565b915050600a826118729190612b90565b915061184f565b60008167ffffffffffffffff8111156118bb577f4e487b7100000000000000000000000000000000000000000000000000000000600052604160045260246000fd5b6040519080825280601f01601f1916602001820160405280156118ed5781602001600182028036833780820191505090505b5090505b600085146119a0576001826119069190612bc1565b9150600a856119159190612d26565b60306119219190612b3a565b60f81b81838151811061195d577f4e487b7100000000000000000000000000000000000000000000000000000000600052603260045260246000fd5b60200101907effffffffffffffffffffffffffffffffffffffffffffffffffffffffffffff1916908160001a905350600a856119999190612b90565b94506118f1565b8093505050505b919050565b600073ffffffffffffffffffffffffffffffffffffffff168273ffffffffffffffffffffffffffffffffffffffff161415611a1c576040517f08c379a0000000000000000000000000000000000000000000000000000000008152600401611a139061294b565b60405180910390fd5b611a2581610f0d565b15611a65576040517f08c379a0000000000000000000000000000000000000000000000000000000008152600401611a5c9061284b565b60405180910390fd5b611a7160008383611608565b6001600460008473ffffffffffffffffffffffffffffffffffffffff1673ffffffffffffffffffffffffffffffffffffffff1681526020019081526020016000206000828254611ac19190612b3a565b92505081905550816003600083815260200190815260200160002060006101000a81548173ffffffffffffffffffffffffffffffffffffffff021916908373ffffffffffffffffffffffffffffffffffffffff160217905550808273ffffffffffffffffffffffffffffffffffffffff16600073ffffffffffffffffffffffffffffffffffffffff167fddf252ad1be2c89b69c2b068fc378daa952ba7f163c4a11628f55a4df523b3ef60405160405180910390a45050565b600080823b905060008111915050919050565b828054611b9990612cab565b90600052602060002090601f016020900481019282611bbb5760008555611c02565b82601f10611bd457805160ff1916838001178555611c02565b82800160010185558215611c02579182015b82811115611c01578251825591602001919060010190611be6565b5b509050611c0f9190611c13565b5090565b5b80821115611c2c576000816000905550600101611c14565b5090565b6000611c43611c3e84612a97565b612a66565b905082815260208101848484011115611c5b57600080fd5b611c66848285612c69565b509392505050565b6000611c81611c7c84612ac7565b612a66565b905082815260208101848484011115611c9957600080fd5b611ca4848285612c69565b509392505050565b600081359050611cbb81612e24565b92915050565b600081359050611cd081612e3b565b92915050565b600081359050611ce581612e52565b92915050565b600081519050611cfa81612e52565b92915050565b600082601f830112611d1157600080fd5b8135611d21848260208601611c30565b91505092915050565b600082601f830112611d3b57600080fd5b8135611d4b848260208601611c6e565b91505092915050565b600081359050611d6381612e69565b92915050565b600060208284031215611d7b57600080fd5b6000611d8984828501611cac565b91505092915050565b60008060408385031215611da557600080fd5b6000611db385828601611cac565b9250506020611dc485828601611cac565b9150509250929050565b600080600060608486031215611de357600080fd5b6000611df186828701611cac565b9350506020611e0286828701611cac565b9250506040611e1386828701611d54565b9150509250925092565b60008060008060808587031215611e3357600080fd5b6000611e4187828801611cac565b9450506020611e5287828801611cac565b9350506040611e6387828801611d54565b925050606085013567ffffffffffffffff811115611e8057600080fd5b611e8c87828801611d00565b91505092959194509250565b60008060408385031215611eab57600080fd5b6000611eb985828601611cac565b9250506020611eca85828601611cc1565b9150509250929050565b60008060408385031215611ee757600080fd5b6000611ef585828601611cac565b925050602083013567ffffffffffffffff811115611f1257600080fd5b611f1e85828601611d2a565b9150509250929050565b60008060408385031215611f3b57600080fd5b6000611f4985828601611cac565b9250506020611f5a85828601611d54565b9150509250929050565b600060208284031215611f7657600080fd5b6000611f8484828501611cd6565b91505092915050565b600060208284031215611f9f57600080fd5b6000611fad84828501611ceb565b91505092915050565b600060208284031215611fc857600080fd5b6000611fd684828501611d54565b91505092915050565b611fe881612bf5565b82525050565b611ff781612c07565b82525050565b600061200882612af7565b6120128185612b0d565b9350612022818560208601612c78565b61202b81612e13565b840191505092915050565b600061204182612b02565b61204b8185612b1e565b935061205b818560208601612c78565b61206481612e13565b840191505092915050565b600061207a82612b02565b6120848185612b2f565b9350612094818560208601612c78565b80840191505092915050565b60006120ad603283612b1e565b91507f4552433732313a207472616e7366657220746f206e6f6e20455243373231526560008301527f63656976657220696d706c656d656e74657200000000000000000000000000006020830152604082019050919050565b6000612113602683612b1e565b91507f4f776e61626c653a206e6577206f776e657220697320746865207a65726f206160008301527f64647265737300000000000000000000000000000000000000000000000000006020830152604082019050919050565b6000612179601c83612b1e565b91507f4552433732313a20746f6b656e20616c7265616479206d696e746564000000006000830152602082019050919050565b60006121b9602483612b1e565b91507f4552433732313a207472616e7366657220746f20746865207a65726f2061646460008301527f72657373000000000000000000000000000000000000000000000000000000006020830152604082019050919050565b600061221f601983612b1e565b91507f4552433732313a20617070726f766520746f2063616c6c6572000000000000006000830152602082019050919050565b600061225f602c83612b1e565b91507f4552433732313a206f70657261746f7220717565727920666f72206e6f6e657860008301527f697374656e7420746f6b656e00000000000000000000000000000000000000006020830152604082019050919050565b60006122c5603883612b1e565b91507f4552433732313a20617070726f76652063616c6c6572206973206e6f74206f7760008301527f6e6572206e6f7220617070726f76656420666f7220616c6c00000000000000006020830152604082019050919050565b600061232b602a83612b1e565b91507f4552433732313a2062616c616e636520717565727920666f7220746865207a6560008301527f726f2061646472657373000000000000000000000000000000000000000000006020830152604082019050919050565b6000612391602983612b1e565b91507f4552433732313a206f776e657220717565727920666f72206e6f6e657869737460008301527f656e7420746f6b656e00000000000000000000000000000000000000000000006020830152604082019050919050565b60006123f7602e83612b1e565b91507f45524337323155524953746f726167653a2055524920736574206f66206e6f6e60008301527f6578697374656e7420746f6b656e0000000000000000000000000000000000006020830152604082019050919050565b600061245d602083612b1e565b91507f4552433732313a206d696e7420746f20746865207a65726f20616464726573736000830152602082019050919050565b600061249d603183612b1e565b91507f45524337323155524953746f726167653a2055524920717565727920666f722060008301527f6e6f6e6578697374656e7420746f6b656e0000000000000000000000000000006020830152604082019050919050565b6000612503602c83612b1e565b91507f4552433732313a20617070726f76656420717565727920666f72206e6f6e657860008301527f697374656e7420746f6b656e00000000000000000000000000000000000000006020830152604082019050919050565b6000612569602083612b1e565b91507f4f776e61626c653a2063616c6c6572206973206e6f7420746865206f776e65726000830152602082019050919050565b60006125a9602983612b1e565b91507f4552433732313a207472616e73666572206f6620746f6b656e2074686174206960008301527f73206e6f74206f776e00000000000000000000000000000000000000000000006020830152604082019050919050565b600061260f602f83612b1e565b91507f4552433732314d657461646174613a2055524920717565727920666f72206e6f60008301527f6e6578697374656e7420746f6b656e00000000000000000000000000000000006020830152604082019050919050565b6000612675602183612b1e565b91507f4552433732313a20617070726f76616c20746f2063757272656e74206f776e6560008301527f72000000000000000000000000000000000000000000000000000000000000006020830152604082019050919050565b60006126db603183612b1e565b91507f4552433732313a207472616e736665722063616c6c6572206973206e6f74206f60008301527f776e6572206e6f7220617070726f7665640000000000000000000000000000006020830152604082019050919050565b61273d81612c5f565b82525050565b600061274f828561206f565b915061275b828461206f565b91508190509392505050565b600060208201905061277c6000830184611fdf565b92915050565b60006080820190506127976000830187611fdf565b6127a46020830186611fdf565b6127b16040830185612734565b81810360608301526127c38184611ffd565b905095945050505050565b60006020820190506127e36000830184611fee565b92915050565b600060208201905081810360008301526128038184612036565b905092915050565b60006020820190508181036000830152612824816120a0565b9050919050565b6000602082019050818103600083015261284481612106565b9050919050565b600060208201905081810360008301526128648161216c565b9050919050565b60006020820190508181036000830152612884816121ac565b9050919050565b600060208201905081810360008301526128a481612212565b9050919050565b600060208201905081810360008301526128c481612252565b9050919050565b600060208201905081810360008301526128e4816122b8565b9050919050565b600060208201905081810360008301526129048161231e565b9050919050565b6000602082019050818103600083015261292481612384565b9050919050565b60006020820190508181036000830152612944816123ea565b9050919050565b6000602082019050818103600083015261296481612450565b9050919050565b6000602082019050818103600083015261298481612490565b9050919050565b600060208201905081810360008301526129a4816124f6565b9050919050565b600060208201905081810360008301526129c48161255c565b9050919050565b600060208201905081810360008301526129e48161259c565b9050919050565b60006020820190508181036000830152612a0481612602565b9050919050565b60006020820190508181036000830152612a2481612668565b9050919050565b60006020820190508181036000830152612a44816126ce565b9050919050565b6000602082019050612a606000830184612734565b92915050565b6000604051905081810181811067ffffffffffffffff82111715612a8d57612a8c612de4565b5b8060405250919050565b600067ffffffffffffffff821115612ab257612ab1612de4565b5b601f19601f8301169050602081019050919050565b600067ffffffffffffffff821115612ae257612ae1612de4565b5b601f19601f8301169050602081019050919050565b600081519050919050565b600081519050919050565b600082825260208201905092915050565b600082825260208201905092915050565b600081905092915050565b6000612b4582612c5f565b9150612b5083612c5f565b9250827fffffffffffffffffffffffffffffffffffffffffffffffffffffffffffffffff03821115612b8557612b84612d57565b5b828201905092915050565b6000612b9b82612c5f565b9150612ba683612c5f565b925082612bb657612bb5612d86565b5b828204905092915050565b6000612bcc82612c5f565b9150612bd783612c5f565b925082821015612bea57612be9612d57565b5b828203905092915050565b6000612c0082612c3f565b9050919050565b60008115159050919050565b60007fffffffff0000000000000000000000000000000000000000000000000000000082169050919050565b600073ffffffffffffffffffffffffffffffffffffffff82169050919050565b6000819050919050565b82818337600083830152505050565b60005b83811015612c96578082015181840152602081019050612c7b565b83811115612ca5576000848401525b50505050565b60006002820490506001821680612cc357607f821691505b60208210811415612cd757612cd6612db5565b5b50919050565b6000612ce882612c5f565b91507fffffffffffffffffffffffffffffffffffffffffffffffffffffffffffffffff821415612d1b57612d1a612d57565b5b600182019050919050565b6000612d3182612c5f565b9150612d3c83612c5f565b925082612d4c57612d4b612d86565b5b828206905092915050565b7f4e487b7100000000000000000000000000000000000000000000000000000000600052601160045260246000fd5b7f4e487b7100000000000000000000000000000000000000000000000000000000600052601260045260246000fd5b7f4e487b7100000000000000000000000000000000000000000000000000000000600052602260045260246000fd5b7f4e487b7100000000000000000000000000000000000000000000000000000000600052604160045260246000fd5b6000601f19601f8301169050919050565b612e2d81612bf5565b8114612e3857600080fd5b50565b612e4481612c07565b8114612e4f57600080fd5b50565b612e5b81612c13565b8114612e6657600080fd5b50565b612e7281612c5f565b8114612e7d57600080fd5b5056fea2646970667358221220cb290015331483a60569f2a279403e9e8c57b7d425dec3455af43a94a34b93dc64736f6c63430008000033",
  "linkReferences": {},
  "deployedLinkReferences": {}
}